{"abi":[{"type":"constructor","inputs":[{"name":"_poolManager","type":"address","internalType":"contract IPoolManager"}],"stateMutability":"nonpayable"},{"type":"function","name":"BASIS_POINTS","inputs":[],"outputs":[{"name":"","type":"uint256","internalType":"uint256"}],"stateMutability":"view"},{"type":"function","name":"LIQUIDATION_THRESHOLD","inputs":[],"outputs":[{"name":"","type":"uint256","internalType":"uint256"}],"stateMutability":"view"},{"type":"function","name":"MATURITY_RISK_DAYS","inputs":[],"outputs":[{"name":"","type":"uint256","internalType":"uint256"}],"stateMutability":"view"},{"type":"function","name":"MAX_FEE_BPS","inputs":[],"outputs":[{"name":"","type":"uint256","internalType":"uint256"}],"stateMutability":"view"},{"type":"function","name":"MIN_FEE_BPS","inputs":[],"outputs":[{"name":"","type":"uint256","internalType":"uint256"}],"stateMutability":"view"},{"type":"function","name":"MIN_HEALTH_FACTOR","inputs":[],"outputs":[{"name":"","type":"uint256","internalType":"uint256"}],"stateMutability":"view"},{"type":"function","name":"SOFT_LIQUIDATION_MAX","inputs":[],"outputs":[{"name":"","type":"uint256","internalType":"uint256"}],"stateMutability":"view"},{"type":"function","name":"addRiskEvent","inputs":[{"name":"poolId","type":"bytes32","internalType":"PoolId"},{"name":"user","type":"address","internalType":"address"},{"name":"severity","type":"uint256","internalType":"uint256"},{"name":"isLatePayment","type":"bool","internalType":"bool"},{"name":"isCreditDowngrade","type":"bool","internalType":"bool"}],"outputs":[],"stateMutability":"nonpayable"},{"type":"function","name":"afterAddLiquidity","inputs":[{"name":"sender","type":"address","internalType":"address"},{"name":"key","type":"tuple","internalType":"struct PoolKey","components":[{"name":"currency0","type":"address","internalType":"Currency"},{"name":"currency1","type":"address","internalType":"Currency"},{"name":"fee","type":"uint24","internalType":"uint24"},{"name":"tickSpacing","type":"int24","internalType":"int24"},{"name":"hooks","type":"address","internalType":"contract IHooks"}]},{"name":"params","type":"tuple","internalType":"struct ModifyLiquidityParams","components":[{"name":"tickLower","type":"int24","internalType":"int24"},{"name":"tickUpper","type":"int24","internalType":"int24"},{"name":"liquidityDelta","type":"int256","internalType":"int256"},{"name":"salt","type":"bytes32","internalType":"bytes32"}]},{"name":"delta","type":"int256","internalType":"BalanceDelta"},{"name":"","type":"int256","internalType":"BalanceDelta"},{"name":"","type":"bytes","internalType":"bytes"}],"outputs":[{"name":"","type":"bytes4","internalType":"bytes4"},{"name":"","type":"int256","internalType":"BalanceDelta"}],"stateMutability":"nonpayable"},{"type":"function","name":"afterDonate","inputs":[{"name":"","type":"address","internalType":"address"},{"name":"","type":"tuple","internalType":"struct PoolKey","components":[{"name":"currency0","type":"address","internalType":"Currency"},{"name":"currency1","type":"address","internalType":"Currency"},{"name":"fee","type":"uint24","internalType":"uint24"},{"name":"tickSpacing","type":"int24","internalType":"int24"},{"name":"hooks","type":"address","internalType":"contract IHooks"}]},{"name":"","type":"uint256","internalType":"uint256"},{"name":"","type":"uint256","internalType":"uint256"},{"name":"","type":"bytes","internalType":"bytes"}],"outputs":[{"name":"","type":"bytes4","internalType":"bytes4"}],"stateMutability":"nonpayable"},{"type":"function","name":"afterInitialize","inputs":[{"name":"","type":"address","internalType":"address"},{"name":"key","type":"tuple","internalType":"struct PoolKey","components":[{"name":"currency0","type":"address","internalType":"Currency"},{"name":"currency1","type":"address","internalType":"Currency"},{"name":"fee","type":"uint24","internalType":"uint24"},{"name":"tickSpacing","type":"int24","internalType":"int24"},{"name":"hooks","type":"address","internalType":"contract IHooks"}]},{"name":"","type":"uint160","internalType":"uint160"},{"name":"","type":"int24","internalType":"int24"}],"outputs":[{"name":"","type":"bytes4","internalType":"bytes4"}],"stateMutability":"nonpayable"},{"type":"function","name":"afterRemoveLiquidity","inputs":[{"name":"","type":"address","internalType":"address"},{"name":"","type":"tuple","internalType":"struct PoolKey","components":[{"name":"currency0","type":"address","internalType":"Currency"},{"name":"currency1","type":"address","internalType":"Currency"},{"name":"fee","type":"uint24","internalType":"uint24"},{"name":"tickSpacing","type":"int24","internalType":"int24"},{"name":"hooks","type":"address","internalType":"contract IHooks"}]},{"name":"","type":"tuple","internalType":"struct ModifyLiquidityParams","components":[{"name":"tickLower","type":"int24","internalType":"int24"},{"name":"tickUpper","type":"int24","internalType":"int24"},{"name":"liquidityDelta","type":"int256","internalType":"int256"},{"name":"salt","type":"bytes32","internalType":"bytes32"}]},{"name":"","type":"int256","internalType":"BalanceDelta"},{"name":"","type":"int256","internalType":"BalanceDelta"},{"name":"","type":"bytes","internalType":"bytes"}],"outputs":[{"name":"","type":"bytes4","internalType":"bytes4"},{"name":"","type":"int256","internalType":"BalanceDelta"}],"stateMutability":"nonpayable"},{"type":"function","name":"afterSwap","inputs":[{"name":"sender","type":"address","internalType":"address"},{"name":"key","type":"tuple","internalType":"struct PoolKey","components":[{"name":"currency0","type":"address","internalType":"Currency"},{"name":"currency1","type":"address","internalType":"Currency"},{"name":"fee","type":"uint24","internalType":"uint24"},{"name":"tickSpacing","type":"int24","internalType":"int24"},{"name":"hooks","type":"address","internalType":"contract IHooks"}]},{"name":"","type":"tuple","internalType":"struct SwapParams","components":[{"name":"zeroForOne","type":"bool","internalType":"bool"},{"name":"amountSpecified","type":"int256","internalType":"int256"},{"name":"sqrtPriceLimitX96","type":"uint160","internalType":"uint160"}]},{"name":"delta","type":"int256","internalType":"BalanceDelta"},{"name":"","type":"bytes","internalType":"bytes"}],"outputs":[{"name":"","type":"bytes4","internalType":"bytes4"},{"name":"","type":"int128","internalType":"int128"}],"stateMutability":"nonpayable"},{"type":"function","name":"beforeAddLiquidity","inputs":[{"name":"sender","type":"address","internalType":"address"},{"name":"key","type":"tuple","internalType":"struct PoolKey","components":[{"name":"currency0","type":"address","internalType":"Currency"},{"name":"currency1","type":"address","internalType":"Currency"},{"name":"fee","type":"uint24","internalType":"uint24"},{"name":"tickSpacing","type":"int24","internalType":"int24"},{"name":"hooks","type":"address","internalType":"contract IHooks"}]},{"name":"","type":"tuple","internalType":"struct ModifyLiquidityParams","components":[{"name":"tickLower","type":"int24","internalType":"int24"},{"name":"tickUpper","type":"int24","internalType":"int24"},{"name":"liquidityDelta","type":"int256","internalType":"int256"},{"name":"salt","type":"bytes32","internalType":"bytes32"}]},{"name":"hookData","type":"bytes","internalType":"bytes"}],"outputs":[{"name":"","type":"bytes4","internalType":"bytes4"}],"stateMutability":"nonpayable"},{"type":"function","name":"beforeDonate","inputs":[{"name":"","type":"address","internalType":"address"},{"name":"","type":"tuple","internalType":"struct PoolKey","components":[{"name":"currency0","type":"address","internalType":"Currency"},{"name":"currency1","type":"address","internalType":"Currency"},{"name":"fee","type":"uint24","internalType":"uint24"},{"name":"tickSpacing","type":"int24","internalType":"int24"},{"name":"hooks","type":"address","internalType":"contract IHooks"}]},{"name":"","type":"uint256","internalType":"uint256"},{"name":"","type":"uint256","internalType":"uint256"},{"name":"","type":"bytes","internalType":"bytes"}],"outputs":[{"name":"","type":"bytes4","internalType":"bytes4"}],"stateMutability":"nonpayable"},{"type":"function","name":"beforeInitialize","inputs":[{"name":"","type":"address","internalType":"address"},{"name":"key","type":"tuple","internalType":"struct PoolKey","components":[{"name":"currency0","type":"address","internalType":"Currency"},{"name":"currency1","type":"address","internalType":"Currency"},{"name":"fee","type":"uint24","internalType":"uint24"},{"name":"tickSpacing","type":"int24","internalType":"int24"},{"name":"hooks","type":"address","internalType":"contract IHooks"}]},{"name":"","type":"uint160","internalType":"uint160"}],"outputs":[{"name":"","type":"bytes4","internalType":"bytes4"}],"stateMutability":"nonpayable"},{"type":"function","name":"beforeRemoveLiquidity","inputs":[{"name":"sender","type":"address","internalType":"address"},{"name":"key","type":"tuple","internalType":"struct PoolKey","components":[{"name":"currency0","type":"address","internalType":"Currency"},{"name":"currency1","type":"address","internalType":"Currency"},{"name":"fee","type":"uint24","internalType":"uint24"},{"name":"tickSpacing","type":"int24","internalType":"int24"},{"name":"hooks","type":"address","internalType":"contract IHooks"}]},{"name":"","type":"tuple","internalType":"struct ModifyLiquidityParams","components":[{"name":"tickLower","type":"int24","internalType":"int24"},{"name":"tickUpper","type":"int24","internalType":"int24"},{"name":"liquidityDelta","type":"int256","internalType":"int256"},{"name":"salt","type":"bytes32","internalType":"bytes32"}]},{"name":"","type":"bytes","internalType":"bytes"}],"outputs":[{"name":"","type":"bytes4","internalType":"bytes4"}],"stateMutability":"nonpayable"},{"type":"function","name":"beforeSwap","inputs":[{"name":"sender","type":"address","internalType":"address"},{"name":"key","type":"tuple","internalType":"struct PoolKey","components":[{"name":"currency0","type":"address","internalType":"Currency"},{"name":"currency1","type":"address","internalType":"Currency"},{"name":"fee","type":"uint24","internalType":"uint24"},{"name":"tickSpacing","type":"int24","internalType":"int24"},{"name":"hooks","type":"address","internalType":"contract IHooks"}]},{"name":"params","type":"tuple","internalType":"struct SwapParams","components":[{"name":"zeroForOne","type":"bool","internalType":"bool"},{"name":"amountSpecified","type":"int256","internalType":"int256"},{"name":"sqrtPriceLimitX96","type":"uint160","internalType":"uint160"}]},{"name":"","type":"bytes","internalType":"bytes"}],"outputs":[{"name":"","type":"bytes4","internalType":"bytes4"},{"name":"","type":"int256","internalType":"BeforeSwapDelta"},{"name":"","type":"uint24","internalType":"uint24"}],"stateMutability":"nonpayable"},{"type":"function","name":"collateralHealth","inputs":[{"name":"","type":"bytes32","internalType":"PoolId"},{"name":"","type":"address","internalType":"address"}],"outputs":[{"name":"totalCollateral","type":"uint256","internalType":"uint256"},{"name":"totalDebt","type":"uint256","internalType":"uint256"},{"name":"lastUpdateTimestamp","type":"uint256","internalType":"uint256"},{"name":"healthFactor","type":"uint256","internalType":"uint256"}],"stateMutability":"view"},{"type":"function","name":"getDynamicFee","inputs":[{"name":"poolId","type":"bytes32","internalType":"PoolId"},{"name":"user","type":"address","internalType":"address"}],"outputs":[{"name":"","type":"uint24","internalType":"uint24"}],"stateMutability":"view"},{"type":"function","name":"getHookPermissions","inputs":[],"outputs":[{"name":"","type":"tuple","internalType":"struct Hooks.Permissions","components":[{"name":"beforeInitialize","type":"bool","internalType":"bool"},{"name":"afterInitialize","type":"bool","internalType":"bool"},{"name":"beforeAddLiquidity","type":"bool","internalType":"bool"},{"name":"afterAddLiquidity","type":"bool","internalType":"bool"},{"name":"beforeRemoveLiquidity","type":"bool","internalType":"bool"},{"name":"afterRemoveLiquidity","type":"bool","internalType":"bool"},{"name":"beforeSwap","type":"bool","internalType":"bool"},{"name":"afterSwap","type":"bool","internalType":"bool"},{"name":"beforeDonate","type":"bool","internalType":"bool"},{"name":"afterDonate","type":"bool","internalType":"bool"},{"name":"beforeSwapReturnDelta","type":"bool","internalType":"bool"},{"name":"afterSwapReturnDelta","type":"bool","internalType":"bool"},{"name":"afterAddLiquidityReturnDelta","type":"bool","internalType":"bool"},{"name":"afterRemoveLiquidityReturnDelta","type":"bool","internalType":"bool"}]}],"stateMutability":"pure"},{"type":"function","name":"getRiskScore","inputs":[{"name":"poolId","type":"bytes32","internalType":"PoolId"},{"name":"user","type":"address","internalType":"address"}],"outputs":[{"name":"","type":"uint256","internalType":"uint256"}],"stateMutability":"view"},{"type":"function","name":"isMLETRCompliant","inputs":[{"name":"","type":"bytes32","internalType":"PoolId"}],"outputs":[{"name":"","type":"bool","internalType":"bool"}],"stateMutability":"view"},{"type":"function","name":"poolManager","inputs":[],"outputs":[{"name":"","type":"address","internalType":"contract IPoolManager"}],"stateMutability":"view"},{"type":"function","name":"poolRiskScores","inputs":[{"name":"","type":"bytes32","internalType":"PoolId"}],"outputs":[{"name":"","type":"uint256","internalType":"uint256"}],"stateMutability":"view"},{"type":"function","name":"riskEvents","inputs":[{"name":"","type":"bytes32","internalType":"PoolId"},{"name":"","type":"address","internalType":"address"},{"name":"","type":"uint256","internalType":"uint256"}],"outputs":[{"name":"timestamp","type":"uint256","internalType":"uint256"},{"name":"severity","type":"uint256","internalType":"uint256"},{"name":"isLatePayment","type":"bool","internalType":"bool"},{"name":"isCreditDowngrade","type":"bool","internalType":"bool"}],"stateMutability":"view"},{"type":"function","name":"tradeAssets","inputs":[{"name":"","type":"bytes32","internalType":"PoolId"},{"name":"","type":"address","internalType":"address"}],"outputs":[{"name":"faceValue","type":"uint256","internalType":"uint256"},{"name":"maturityTimestamp","type":"uint256","internalType":"uint256"},{"name":"creditScore","type":"uint8","internalType":"uint8"},{"name":"assetType","type":"uint8","internalType":"enum TradeFinanceHook.AssetType"},{"name":"jurisdictionHash","type":"bytes32","internalType":"bytes32"},{"name":"isActive","type":"bool","internalType":"bool"}],"stateMutability":"view"},{"type":"event","name":"CollateralHealthUpdated","inputs":[{"name":"poolId","type":"bytes32","indexed":true,"internalType":"PoolId"},{"name":"user","type":"address","indexed":true,"internalType":"address"},{"name":"healthFactor","type":"uint256","indexed":false,"internalType":"uint256"}],"anonymous":false},{"type":"event","name":"DynamicFeeApplied","inputs":[{"name":"poolId","type":"bytes32","indexed":true,"internalType":"PoolId"},{"name":"feeAmount","type":"uint256","indexed":false,"internalType":"uint256"},{"name":"riskScore","type":"uint256","indexed":false,"internalType":"uint256"}],"anonymous":false},{"type":"event","name":"RiskScoreUpdated","inputs":[{"name":"poolId","type":"bytes32","indexed":true,"internalType":"PoolId"},{"name":"user","type":"address","indexed":true,"internalType":"address"},{"name":"newScore","type":"uint256","indexed":false,"internalType":"uint256"}],"anonymous":false},{"type":"event","name":"SoftLiquidationExecuted","inputs":[{"name":"poolId","type":"bytes32","indexed":true,"internalType":"PoolId"},{"name":"user","type":"address","indexed":true,"internalType":"address"},{"name":"amount","type":"uint256","indexed":false,"internalType":"uint256"}],"anonymous":false},{"type":"event","name":"TradeAssetRegistered","inputs":[{"name":"poolId","type":"bytes32","indexed":true,"internalType":"PoolId"},{"name":"owner","type":"address","indexed":true,"internalType":"address"},{"name":"faceValue","type":"uint256","indexed":false,"internalType":"uint256"},{"name":"assetType","type":"uint8","indexed":false,"internalType":"enum TradeFinanceHook.AssetType"}],"anonymous":false}],"bytecode":{"object":"0x60a0604052348015600e575f80fd5b5060405161272e38038061272e833981016040819052602b91603b565b6001600160a01b03166080526066565b5f60208284031215604a575f80fd5b81516001600160a01b0381168114605f575f80fd5b9392505050565b60805161267f6100af5f395f81816105b1015281816106850152818161086301528181610aa801528181610cf901528181610f8f0152818161108101526111e9015261267f5ff3fe608060405234801561000f575f80fd5b50600436106101b0575f3560e01c8063b47b2fb1116100f3578063dc4c90d311610093578063e1f1c4a71161006e578063e1f1c4a714610475578063e7c18a2f1461060b578063eb4aa2c914610613578063f8e383051461063a575f80fd5b8063dc4c90d3146105ac578063dc98354e146105f8578063e1b4af691461047e575f80fd5b8063c4e833ce116100ce578063c4e833ce14610491578063cbaa1a4714610588578063d55be8c614610590578063d851d9a114610599575f80fd5b8063b47b2fb114610427578063b5627e4214610475578063b6a8b0fa1461047e575f80fd5b8063575e24b41161015e5780636fe7e6eb116101395780636fe7e6eb146103e35780637749ce23146103f657806390a8ae9b1461040b5780639f063efc14610414575f80fd5b8063575e24b4146102e45780636c2bbe7e1461033a5780636e89317f14610385575f80fd5b8063343df82e1161018e578063343df82e1461024b5780634a3d79321461027857806351028c8514610281575f80fd5b806321d0ee70146101b4578063259982e5146101fd57806331aec14b14610210575b5f80fd5b6101c76101c2366004611d57565b61066c565b6040517fffffffff0000000000000000000000000000000000000000000000000000000090911681526020015b60405180910390f35b6101c761020b366004611d57565b61084a565b61022361021e366004611dce565b610a37565b60408051948552602085019390935290151591830191909152151560608201526080016101f4565b61026a610259366004611e03565b60046020525f908152604090205481565b6040519081526020016101f4565b61026a6107d081565b6102d261028f366004611e1a565b600160208181525f9384526040808520909152918352912080549181015460028201546003830154600490930154919260ff808316936101009093048116921686565b6040516101f496959493929190611eae565b6102f76102f2366004611efb565b610a8d565b604080517fffffffff000000000000000000000000000000000000000000000000000000009094168452602084019290925262ffffff16908201526060016101f4565b61034d610348366004611f55565b610c7a565b604080517fffffffff0000000000000000000000000000000000000000000000000000000090931683526020830191909152016101f4565b6103c3610393366004611e1a565b600260208181525f9384526040808520909152918352912080546001820154928201546003909201549092919084565b6040805194855260208501939093529183015260608201526080016101f4565b6101c76103f1366004611ff6565b610ce0565b61040961040436600461205c565b610dd0565b005b61026a611f4081565b61034d610422366004611f55565b610f75565b61043a6104353660046120b1565b611067565b604080517fffffffff000000000000000000000000000000000000000000000000000000009093168352600f9190910b6020830152016101f4565b61026a61271081565b6101c761048c366004612132565b611158565b61057b604080516101c0810182525f80825260208201819052918101829052606081018290526080810182905260a0810182905260c0810182905260e08101829052610100810182905261012081018290526101408101829052610160810182905261018081018290526101a081019190915250604080516101c08101825260018082526020820181905291810182905260608101829052608081018290525f60a0820181905260c0820183905260e0820183905261010082018190526101208201819052610140820192909252610160810182905261018081018290526101a081019190915290565b6040516101f4919061218c565b61026a600a81565b61026a61012c81565b61026a6105a7366004611e1a565b6111bc565b6105d37f000000000000000000000000000000000000000000000000000000000000000081565b60405173ffffffffffffffffffffffffffffffffffffffff90911681526020016101f4565b6101c76106063660046122ad565b6111d0565b61026a600781565b610626610621366004611e1a565b6112e5565b60405162ffffff90911681526020016101f4565b61065c610648366004611e03565b5f6020819052908152604090205460ff1681565b60405190151581526020016101f4565b5f3373ffffffffffffffffffffffffffffffffffffffff7f00000000000000000000000000000000000000000000000000000000000000001614610711576040517f08c379a000000000000000000000000000000000000000000000000000000000815260206004820152601060248201527f4e6f7420706f6f6c206d616e616765720000000000000000000000000000000060448201526064015b60405180910390fd5b5f61072b61072436889003880188612342565b60a0902090565b5f81815260026020818152604080842073ffffffffffffffffffffffffffffffffffffffff8d1685528252928390208351608081018552815481526001820154928101929092529182015492810192909252600301546060820181905291925090611f40111561081d576040517f08c379a000000000000000000000000000000000000000000000000000000000815260206004820152602260248201527f43616e6e6f7420776974686472617720647572696e67206c697175696461746960448201527f6f6e0000000000000000000000000000000000000000000000000000000000006064820152608401610708565b507f21d0ee7000000000000000000000000000000000000000000000000000000000979650505050505050565b5f3373ffffffffffffffffffffffffffffffffffffffff7f000000000000000000000000000000000000000000000000000000000000000016146108ea576040517f08c379a000000000000000000000000000000000000000000000000000000000815260206004820152601060248201527f4e6f7420706f6f6c206d616e61676572000000000000000000000000000000006044820152606401610708565b5f6108fd61072436889003880188612342565b5f8181526020819052604090205490915060ff16610977576040517f08c379a000000000000000000000000000000000000000000000000000000000815260206004820152601860248201527f506f6f6c206e6f74204d4c45545220636f6d706c69616e7400000000000000006044820152606401610708565b8215610a0b575f8061098b85870187612404565b91509150816109f6576040517f08c379a000000000000000000000000000000000000000000000000000000000815260206004820152601d60248201527f4b59432f414d4c20766572696669636174696f6e2072657175697265640000006044820152606401610708565b805115610a0857610a08838a83611304565b50505b507f259982e5000000000000000000000000000000000000000000000000000000009695505050505050565b6003602052825f5260405f20602052815f5260405f208181548110610a5a575f80fd5b5f91825260209091206003909102018054600182015460029092015490945090925060ff80821692506101009091041684565b5f80803373ffffffffffffffffffffffffffffffffffffffff7f00000000000000000000000000000000000000000000000000000000000000001614610b2f576040517f08c379a000000000000000000000000000000000000000000000000000000000815260206004820152601060248201527f4e6f7420706f6f6c206d616e61676572000000000000000000000000000000006044820152606401610708565b5f610b42610724368a90038a018a612342565b90505f610b4f828b6115ae565b90505f610b5b826118a8565b90505f60025f8581526020019081526020015f205f8d73ffffffffffffffffffffffffffffffffffffffff1673ffffffffffffffffffffffffffffffffffffffff1681526020019081526020015f206040518060800160405290815f820154815260200160018201548152602001600282015481526020016003820154815250509050611f408160600151108015610bf657505f8160200151115b15610c0657610c06848d8c6118f5565b6040805162ffffff841681526020810185905285917f73c133912c22d222b4860af25af43900edb24c4b007d9320ce9f8deb8df95cb7910160405180910390a2507f575e24b4000000000000000000000000000000000000000000000000000000009b5f9b50909950975050505050505050565b6040517f08c379a000000000000000000000000000000000000000000000000000000000815260206004820152600f60248201527f4e6f7420696d706c656d656e746564000000000000000000000000000000000060448201525f908190606401610708565b5f3373ffffffffffffffffffffffffffffffffffffffff7f00000000000000000000000000000000000000000000000000000000000000001614610d80576040517f08c379a000000000000000000000000000000000000000000000000000000000815260206004820152601060248201527f4e6f7420706f6f6c206d616e61676572000000000000000000000000000000006044820152606401610708565b5f610d9361072436879003870187612342565b5f9081526004602052604090206113889055507f6fe7e6eb0000000000000000000000000000000000000000000000000000000095945050505050565b6064831115610e3b576040517f08c379a000000000000000000000000000000000000000000000000000000000815260206004820152601060248201527f496e76616c6964207365766572697479000000000000000000000000000000006044820152606401610708565b5f85815260036020818152604080842073ffffffffffffffffffffffffffffffffffffffff8916855282528084208151608081018352428152808401898152881515938201938452871515606083019081528354600181810186559489529588209251959096029091019384555190830155516002909101805492511515610100027fffffffffffffffffffffffffffffffffffffffffffffffffffffffffffff00ff921515929092167fffffffffffffffffffffffffffffffffffffffffffffffffffffffffffff000090931692909217179055610f1a86866115ae565b90508473ffffffffffffffffffffffffffffffffffffffff16867fdcc0da90d2115d386ddcf0abe0cc621a0e79d012bb78d375b738b298701cb56d83604051610f6591815260200190565b60405180910390a3505050505050565b5f803373ffffffffffffffffffffffffffffffffffffffff7f00000000000000000000000000000000000000000000000000000000000000001614611016576040517f08c379a000000000000000000000000000000000000000000000000000000000815260206004820152601060248201527f4e6f7420706f6f6c206d616e61676572000000000000000000000000000000006044820152606401610708565b5f611029610724368b90038b018b612342565b9050611036818b89611a8e565b507f9f063efc0000000000000000000000000000000000000000000000000000000099959850949650505050505050565b5f803373ffffffffffffffffffffffffffffffffffffffff7f00000000000000000000000000000000000000000000000000000000000000001614611108576040517f08c379a000000000000000000000000000000000000000000000000000000000815260206004820152601060248201527f4e6f7420706f6f6c206d616e61676572000000000000000000000000000000006044820152606401610708565b5f61111b610724368a90038a018a612342565b9050611128818a88611a8e565b507fb47b2fb100000000000000000000000000000000000000000000000000000000985f98509650505050505050565b6040517f08c379a000000000000000000000000000000000000000000000000000000000815260206004820152600f60248201527f4e6f7420696d706c656d656e746564000000000000000000000000000000000060448201525f90606401610708565b5f6111c783836115ae565b90505b92915050565b5f3373ffffffffffffffffffffffffffffffffffffffff7f00000000000000000000000000000000000000000000000000000000000000001614611270576040517f08c379a000000000000000000000000000000000000000000000000000000000815260206004820152601060248201527f4e6f7420706f6f6c206d616e61676572000000000000000000000000000000006044820152606401610708565b5f61128361072436869003860186612342565b5f90815260208190526040902080547fffffffffffffffffffffffffffffffffffffffffffffffffffffffffffffff00166001179055507fdc98354e0000000000000000000000000000000000000000000000000000000090505b9392505050565b5f806112f184846115ae565b90506112fc816118a8565b949350505050565b805161136c576040517f08c379a000000000000000000000000000000000000000000000000000000000815260206004820152601260248201527f496e76616c696420666163652076616c756500000000000000000000000000006044820152606401610708565b428160200151116113d9576040517f08c379a000000000000000000000000000000000000000000000000000000000815260206004820152601060248201527f496e76616c6964206d61747572697479000000000000000000000000000000006044820152606401610708565b6064816040015160ff16111561144b576040517f08c379a000000000000000000000000000000000000000000000000000000000815260206004820152601460248201527f496e76616c6964206372656469742073636f72650000000000000000000000006044820152606401610708565b600160a082018190525f8481526020828152604080832073ffffffffffffffffffffffffffffffffffffffff871684528252918290208451815590840151928101929092558201516002820180547fffffffffffffffffffffffffffffffffffffffffffffffffffffffffffffff00811660ff909316928317825560608501518594939092917fffffffffffffffffffffffffffffffffffffffffffffffffffffffffffff0000161761010083600381111561150957611509611e48565b02179055506080820151600382015560a090910151600490910180547fffffffffffffffffffffffffffffffffffffffffffffffffffffffffffffff00169115159190911790558051606082015160405173ffffffffffffffffffffffffffffffffffffffff85169286927f72617931c94aa3d1a8fa15c202c316425c7f1e72bf65fe93aff25972338ad2e4926115a19291906124be565b60405180910390a3505050565b5f82815260016020818152604080842073ffffffffffffffffffffffffffffffffffffffff861685528252808420815160c081018352815481529381015492840192909252600282015460ff80821692850192909252849392916060840191610100900416600381111561162457611624611e48565b600381111561163557611635611e48565b81526003820154602082015260049091015460ff16151560409091015260a08101519091506116735750505f828152600460205260409020546111ca565b5f8160400151606461168591906124ff565b611690906064612518565b61169d9060ff1682612534565b90505f82602001511180156116cc57506116bb600762015180612547565b6116c59042612534565b8260200151105b156116e0576116dd6101f482612534565b90505b5f85815260036020908152604080832073ffffffffffffffffffffffffffffffffffffffff88168452825280832080548251818502810185019093528083529192909190849084015b8282101561178a575f8481526020908190206040805160808101825260038602909201805483526001808201548486015260029091015460ff8082161515938501939093526101009004909116151560608301529083529092019101611729565b5050505090505f5b8151811080156117a25750600a81105b1561189d576117b462278d004261255e565b8282815181106117c6576117c6612571565b60200260200101515f0151111561188b578181815181106117e9576117e9612571565b602002602001015160400151156118315781818151811061180c5761180c612571565b60200260200101516020015160026118249190612547565b61182e9084612534565b92505b81818151811061184357611843612571565b6020026020010151606001511561188b5781818151811061186657611866612571565b602002602001015160200151600361187e9190612547565b6118889084612534565b92505b806118958161259e565b915050611792565b509095945050505050565b5f80613a986118ba600a61012c61255e565b6118c49085612547565b6118ce91906125d5565b6118d990600a612534565b905061012c8111156118ea575061012c5b6112de816064612547565b5f83815260026020908152604080832073ffffffffffffffffffffffffffffffffffffffff86168452909152812060018101549091036119355750505050565b5f6127106107d0836001015461194b9190612547565b61195591906125d5565b9050816001015481111561196a575060018101545b80826001015f82825461197d919061255e565b90915550504260028301556001820154156119ba57600182015482546119a69061271090612547565b6119b091906125d5565b60038301556119e1565b7fffffffffffffffffffffffffffffffffffffffffffffffffffffffffffffffff60038301555b8373ffffffffffffffffffffffffffffffffffffffff16857f55718beda55a32964a48562fcb85c9d36b993c8fe70061777f444844c146b1d383604051611a2a91815260200190565b60405180910390a38373ffffffffffffffffffffffffffffffffffffffff16857f571c4b72c86b0a12141e9ab75cd0033a5405f340fd5995f43926a44d5e67368a8460030154604051611a7f91815260200190565b60405180910390a35050505050565b5f83815260026020908152604080832073ffffffffffffffffffffffffffffffffffffffff86168452909152812090611ac78360801d90565b90505f611ad484600f0b90565b90505f82600f0b1315611b1057816fffffffffffffffffffffffffffffffff16835f015f828254611b059190612534565b90915550611b799050565b5f82600f0b1215611b79575f611b258361260d565b9050806fffffffffffffffffffffffffffffffff16845f01541115611b7357806fffffffffffffffffffffffffffffffff16845f015f828254611b68919061255e565b90915550611b779050565b5f84555b505b5f81600f0b1315611bb357806fffffffffffffffffffffffffffffffff16835f015f828254611ba89190612534565b90915550611c1c9050565b5f81600f0b1215611c1c575f611bc88261260d565b9050806fffffffffffffffffffffffffffffffff16845f01541115611c1657806fffffffffffffffffffffffffffffffff16845f015f828254611c0b919061255e565b90915550611c1a9050565b5f84555b505b426002840155600183015415611c545760018301548354611c409061271090612547565b611c4a91906125d5565b6003840155611c7b565b7fffffffffffffffffffffffffffffffffffffffffffffffffffffffffffffffff60038401555b8473ffffffffffffffffffffffffffffffffffffffff16867f571c4b72c86b0a12141e9ab75cd0033a5405f340fd5995f43926a44d5e67368a8560030154604051610f6591815260200190565b73ffffffffffffffffffffffffffffffffffffffff81168114611ce9575f80fd5b50565b5f60a08284031215611cfc575f80fd5b50919050565b5f60808284031215611cfc575f80fd5b5f8083601f840112611d22575f80fd5b50813567ffffffffffffffff811115611d39575f80fd5b602083019150836020828501011115611d50575f80fd5b9250929050565b5f805f805f6101608688031215611d6c575f80fd5b8535611d7781611cc8565b9450611d868760208801611cec565b9350611d958760c08801611d02565b925061014086013567ffffffffffffffff811115611db1575f80fd5b611dbd88828901611d12565b969995985093965092949392505050565b5f805f60608486031215611de0575f80fd5b833592506020840135611df281611cc8565b929592945050506040919091013590565b5f60208284031215611e13575f80fd5b5035919050565b5f8060408385031215611e2b575f80fd5b823591506020830135611e3d81611cc8565b809150509250929050565b7f4e487b71000000000000000000000000000000000000000000000000000000005f52602160045260245ffd5b60048110611eaa577f4e487b71000000000000000000000000000000000000000000000000000000005f52602160045260245ffd5b9052565b8681526020810186905260ff8516604082015260c08101611ed26060830186611e75565b83608083015282151560a0830152979650505050505050565b5f60608284031215611cfc575f80fd5b5f805f805f6101408688031215611f10575f80fd5b8535611f1b81611cc8565b9450611f2a8760208801611cec565b9350611f398760c08801611eeb565b925061012086013567ffffffffffffffff811115611db1575f80fd5b5f805f805f805f6101a0888a031215611f6c575f80fd5b8735611f7781611cc8565b9650611f868960208a01611cec565b9550611f958960c08a01611d02565b94506101408801359350610160880135925061018088013567ffffffffffffffff811115611fc1575f80fd5b611fcd8a828b01611d12565b989b979a50959850939692959293505050565b8035600281900b8114611ff1575f80fd5b919050565b5f805f80610100858703121561200a575f80fd5b843561201581611cc8565b93506120248660208701611cec565b925060c085013561203481611cc8565b915061204260e08601611fe0565b905092959194509250565b80358015158114611ff1575f80fd5b5f805f805f60a08688031215612070575f80fd5b85359450602086013561208281611cc8565b9350604086013592506120976060870161204d565b91506120a56080870161204d565b90509295509295909350565b5f805f805f8061016087890312156120c7575f80fd5b86356120d281611cc8565b95506120e18860208901611cec565b94506120f08860c08901611eeb565b9350610120870135925061014087013567ffffffffffffffff811115612114575f80fd5b61212089828a01611d12565b979a9699509497509295939492505050565b5f805f805f806101208789031215612148575f80fd5b863561215381611cc8565b95506121628860208901611cec565b945060c0870135935060e0870135925061010087013567ffffffffffffffff811115612114575f80fd5b8151151581526101c0810160208301516121aa602084018215159052565b5060408301516121be604084018215159052565b5060608301516121d2606084018215159052565b5060808301516121e6608084018215159052565b5060a08301516121fa60a084018215159052565b5060c083015161220e60c084018215159052565b5060e083015161222260e084018215159052565b5061010083015161223861010084018215159052565b5061012083015161224e61012084018215159052565b5061014083015161226461014084018215159052565b5061016083015161227a61016084018215159052565b5061018083015161229061018084018215159052565b506101a08301516122a66101a084018215159052565b5092915050565b5f805f60e084860312156122bf575f80fd5b83356122ca81611cc8565b92506122d98560208601611cec565b915060c08401356122e981611cc8565b809150509250925092565b60405160c0810167ffffffffffffffff8111828210171561233c577f4e487b71000000000000000000000000000000000000000000000000000000005f52604160045260245ffd5b60405290565b5f60a0828403128015612353575f80fd5b5060405160a0810167ffffffffffffffff8111828210171561239c577f4e487b71000000000000000000000000000000000000000000000000000000005f52604160045260245ffd5b60405282356123aa81611cc8565b815260208301356123ba81611cc8565b6020820152604083013562ffffff811681146123d4575f80fd5b60408201526123e560608401611fe0565b606082015260808301356123f881611cc8565b60808201529392505050565b5f8082840360e0811215612416575f80fd5b61241f8461204d565b925060c07fffffffffffffffffffffffffffffffffffffffffffffffffffffffffffffffe082011215612450575f80fd5b506124596122f4565b6020848101358252604085013590820152606084013560ff8116811461247d575f80fd5b6040820152608084013560048110612493575f80fd5b606082015260a084013560808201526124ae60c0850161204d565b60a0820152809150509250929050565b828152604081016112de6020830184611e75565b7f4e487b71000000000000000000000000000000000000000000000000000000005f52601160045260245ffd5b60ff82811682821603908111156111ca576111ca6124d2565b60ff81811683821602908116908181146122a6576122a66124d2565b808201808211156111ca576111ca6124d2565b80820281158282048414176111ca576111ca6124d2565b818103818111156111ca576111ca6124d2565b7f4e487b71000000000000000000000000000000000000000000000000000000005f52603260045260245ffd5b5f7fffffffffffffffffffffffffffffffffffffffffffffffffffffffffffffffff82036125ce576125ce6124d2565b5060010190565b5f82612608577f4e487b71000000000000000000000000000000000000000000000000000000005f52601260045260245ffd5b500490565b5f81600f0b7fffffffffffffffffffffffffffffffff800000000000000000000000000000008103612641576126416124d2565b5f039291505056fea2646970667358221220aa8943c14767a258da3e4be46510904c3db450b7ced77686623a3fd100b49c2464736f6c634300081a0033","linkReferences":{}},"methodIdentifiers":{"BASIS_POINTS()":"e1f1c4a7","LIQUIDATION_THRESHOLD()":"90a8ae9b","MATURITY_RISK_DAYS()":"e7c18a2f","MAX_FEE_BPS()":"d55be8c6","MIN_FEE_BPS()":"cbaa1a47","MIN_HEALTH_FACTOR()":"b5627e42","SOFT_LIQUIDATION_MAX()":"4a3d7932","addRiskEvent(bytes32,address,uint256,bool,bool)":"7749ce23","afterAddLiquidity(address,(address,address,uint24,int24,address),(int24,int24,int256,bytes32),int256,int256,bytes)":"9f063efc","afterDonate(address,(address,address,uint24,int24,address),uint256,uint256,bytes)":"e1b4af69","afterInitialize(address,(address,address,uint24,int24,address),uint160,int24)":"6fe7e6eb","afterRemoveLiquidity(address,(address,address,uint24,int24,address),(int24,int24,int256,bytes32),int256,int256,bytes)":"6c2bbe7e","afterSwap(address,(address,address,uint24,int24,address),(bool,int256,uint160),int256,bytes)":"b47b2fb1","beforeAddLiquidity(address,(address,address,uint24,int24,address),(int24,int24,int256,bytes32),bytes)":"259982e5","beforeDonate(address,(address,address,uint24,int24,address),uint256,uint256,bytes)":"b6a8b0fa","beforeInitialize(address,(address,address,uint24,int24,address),uint160)":"dc98354e","beforeRemoveLiquidity(address,(address,address,uint24,int24,address),(int24,int24,int256,bytes32),bytes)":"21d0ee70","beforeSwap(address,(address,address,uint24,int24,address),(bool,int256,uint160),bytes)":"575e24b4","collateralHealth(bytes32,address)":"6e89317f","getDynamicFee(bytes32,address)":"eb4aa2c9","getHookPermissions()":"c4e833ce","getRiskScore(bytes32,address)":"d851d9a1","isMLETRCompliant(bytes32)":"f8e38305","poolManager()":"dc4c90d3","poolRiskScores(bytes32)":"343df82e","riskEvents(bytes32,address,uint256)":"31aec14b","tradeAssets(bytes32,address)":"51028c85"},"id":42}